:100000000C942A000C9445010C9430010C94470088
:100010000C9447000C9447000C9447000C94470044
:100020000C9447000C9455010C9447000C94470025
:100030000C9447000C9447000C9447000C94470024
:100040000C9447000C9447000C9447000C94470014
:100050000C94470011241FBECFE5D8E0DEBFCDBF12
:1000600010E0A0E6B0E0E6EEF2E002C005900D92EE
:10007000AA36B107D9F710E0AAE6B0E001C01D9298
:10008000A137B107E1F70E9424010C9471010C948F
:100090000000DF93CF93CDB7DEB784E390E02FEF7E
:1000A000FC0120838AE390E02FEFFC01208381E3B1
:1000B00090E0FC01108282E390E02FEFFC012083AE
:1000C00083E080937000CF91DF910895DF93CF9309
:1000D000CDB7DEB7CF91DF910895DF93CF93CDB742
:1000E000DEB7CF91DF910895DF93CF93CDB7DEB721
:1000F000CF91DF910895DF93CF93CDB7DEB7CF9146
:10010000DF910895DF93CF93CDB7DEB72D970FB66C
:10011000F894DEBF0FBECDBF8B876C874D87CE01B5
:10012000019620E630E04AE0F90100802F5F3F4F62
:10013000FC010082019641504423B1F725E330E0F1
:100140008B859AE0692F0E946501892F882F90E0A6
:10015000AE014F5F5F4F840F951FFC018081F90155
:1001600080838BE390E02D85FC0120838B859AE0D2
:10017000692F0E9465018B8725E330E08B859AE02B
:10018000692F0E946501892F882F90E0AE014F5F93
:100190005F4F840F951FFC018081F90180838D855D
:1001A000813049F485E390E025E330E0F9012081D6
:1001B0002068FC0120838BE390E02C85FC012083E8
:1001C0002D960FB6F894DEBF0FBECDBFCF91DF9155
:1001D0000895DF93CF93CDB7DEB780916D0060E0D7
:1001E00041E00E94820080916C0062E043E00E9446
:1001F0008200CF91DF910895DF93CF93CDB7DEB723
:1002000080916F0060E041E00E94820080916E006A
:1002100062E043E00E948200CF91DF910895DF9376
:10022000CF93CDB7DEB7CF91DF910895DF93CF9312
:10023000CDB7DEB7CF91DF910895DF93CF93CDB7E0
:10024000DEB7CF91DF910895DF93CF93CDB7DEB7BF
:1002500078940E9449000E94660080916A00FDCF58
:100260001F920F920FB60F9211248F93DF93CF93AB
:10027000CDB7DEB781E080936A00CF91DF918F9197
:100280000F900FBE0F901F9018951F920F920FB6F0
:100290000F921124DF93CF93CDB7DEB7CF91DF91CB
:1002A0000F900FBE0F901F9018951F920F920FB6D0
:1002B0000F921124DF93CF93CDB7DEB7CF91DF91AB
:1002C0000F900FBE0F901F901895991B79E004C0F6
:1002D000991F961708F0961B881F7A95C9F7809585
:0602E0000895F894FFCF21
:0A02E6003F065B4F666D7D077F6FDA
:00000001FF
